:020000040000FA
:100000008601850107301428030EF400831685014C
:100010008312850190018C01A20A8B010130AF008F
:10002000AD00740E830009009F004123A1018316D7
:10003000B03086008501373081000C148312C02552
:100040000330A400860085158511B325A40B232851
:1000500002308600DB252830CD250C30CD2506303A
:10006000CD25ED25C420ED01D0206D1F7628072970
:10007000D0202115ED255830D225A401201BA40A3B
:10008000A01CA40A0330201DA4000430201CA407D7
:10009000240AD025F325A40D2410240821191B239C
:1000A000061EE722861EEB220A3024020319A72827
:1000B00006302402031D6B28D401073055020318B3
:1000C000D5010330550206300319D500053055021D
:1000D00002300319D500523009236926A825D02003
:1000E000211981230130C125A01B3A28D020ED0120
:1000F000A01F7628C4200C301B235508F500403083
:10010000CD25CF27D227DC27CF27D327DB27CF2723
:10011000D427DA27CF27E927D927EE27D7270A3090
:100120001B23B62070300023ED252D21FA01ED01AF
:100130008030A400D020201D8229A01C012C201F6B
:10014000FE2BA41BB22BA40AFF30B9259A28C72581
:10015000B62045238330D200CC26B62669265630F9
:10016000092352300023ED0129226F285230092340
:100170005630002391269430D2006C30D3002430C6
:10018000D400D5016D27080006301B235508EF0069
:1001900008006230873C203E243ED225C02508005E
:1001A0008316F73086008312B3252110A110211188
:1001B000ED13060820067739031D21154339031D69
:1001C00021140139031DA1140608A000A01F6D17FA
:1001D000A11BEE28A01EF320201EF7208316B030AE
:1001E000860083120800ED18FB286D10FD286D1C99
:1001F000FB28ED14FD286D14ED10ED170800831693
:1002000085149F0083120730B6259F080800073029
:10021000CD258730CD250A30CB20C9204730CC20D2
:100220002530CB205730CA20C9205D30CA20F525A3
:10023000C0251230CB205F30CA201D30CB202030AB
:10024000CB202530CB204930CC20C9202E30CB20EC
:10025000F525C0250630CD253828103083169B00A3
:1002600083123A3084003123800083169B0A831264
:10027000840A4A300402031D332920179B23FA0104
:10028000080088306F1D383ECD25EE0186150230FE
:100290009F008530FF209F1F6E14AA30FF209F1FF4
:1002A000EE148630FF209F1F6E15AB30FF209F1F7E
:1002B000EE15AC30FF209F1FEE16AE30FF209F1FC3
:1002C0006E1707309F0083169F138501831220301D
:1002D0006E1BD22DEE1A8611751871296E1C2130F5
:1002E000D22D00306E180130EE1802306E19033036
:1002F000EE190430EE1A7A306E18D22DFE0AFE186E
:100300002030D22D2113ED106D14F51820186D102A
:10031000ED25EF189D296F18F5253D306F1C2A3EFD
:100320002623F5255430F22547236D18AB29F025F7
:1003300000263230D225FB25B129FF25D130ED181A
:100340007B306D1C3D30D2252018F5250026F52583
:10035000843044214723F5253130D225ED18F0258E
:10036000FB257E30EA001B235508E800D40803195A
:10037000BB295403BC290230E9002018C429A01F5E
:10038000A117A11FC529822285140326C7250D3078
:10039000EF1C033EEC006D18D729201CD229043035
:1003A0009023CC2645238230D2000927B626692621
:1003B0000430A200ED1CE6290310DE0CDD0CDC0C81
:1003C000DB0CDA0CA20BDD29DE0C022A6D18022AE6
:1003D0000310DA0DDB0DDC0DDD0DDE0DA20BE829BF
:1003E000EE1FF4290530DA07201C022A5E0EEF18F2
:1003F000FF29FF390319022A6B150F39031DD02578
:100400005E08D0252922EF180D2A6C0B082A0A2A2B
:10041000F525052AA11F4121112AA11B112A84308B
:100420004421D0202019252AED1B8629A11CBD2995
:100430002018A11F8229A1131208D40054116808A2
:10044000D5007E30A40081238229A1139201970157
:100450009428ED183D2A5D0EEF1C6B19342AFF39E4
:1004600003193D2A0F39031DD0255D08D025EF184B
:100470003E2A2C30D225EB143E2A6B145C0EEF1C66
:10048000EB18472AFF3903194B2A0F39031DD025D2
:100490005C08D0256B165B0EEF1C6B1A522A0F39C5
:1004A0000319562AD025EF1C0026572AEB155B08A6
:1004B000D025AB25201CAB25ED1C622A2C30D22583
:1004C0005E0ED025EF1C6B2A8530A11B013ECD2589
:1004D000A11B7D2A732AF525EB19752A6B306F183D
:1004E0004F3E6B18742A4D30D2256F18EF197D2AB4
:1004F000A130D225E530D225802AFE257A30D225BA
:10050000EB0108008030CD25EE01EF188C2A453034
:100510006F1C2C3E2623F525061E922A861AA12A38
:10052000E803932AE80AF0220430C125061EE80AEF
:10053000861EE803F0228030B925061E962A861E04
:10054000962AF0224723A01BAA2AFF30E918E900C7
:10055000E90AC0250130E918103069180430B600E6
:1005600069268330EF1C0A3ECD252A30D225AA25E4
:100570008316120883126806031DC22A6A086906D8
:10058000031908006908EA004723680883169200E7
:100590008312B600B60FCD2AB50A351CD42A803096
:1005A000950097121712E12A171297123608B6070C
:1005B000361817163610B60C361897163610360C35
:1005C00095006908920012150C3097040800D50AAE
:1005D0000319D40A0800D5080319D403D503080069
:1005E00047236808B600B60FF62AB50A8030EF1C1C
:1005F0000A3ECD2569265B08D025AA2508003E3095
:10060000A6003330A7000C2B3330A70052300B2B41
:100610006330A7003330A6000430A200270884000E
:100620000008A8002608840028088000A60AA70A57
:10063000A20B0E2B080083169B0083124523312347
:10064000D40083169B0A3123D500080083169B0033
:100650001B083123FF3903190800D22583169B0A92
:10066000282B83161C141A08831208009B001C15E3
:1006700055309D00AA309D009C141C119C183E2BE7
:100680000800233084004B304A2B5230482B333043
:1006900084000430A2008001840AA20B4B2B0800C6
:1006A000201BA11A9A2821170326D82B5630002385
:1006B0000823563005236C233A30052365273B2455
:1006C0003E3005235630092365278230EF1CC930A0
:1006D000CD25A014932C9A28CC260423B230B30045
:1006E0006630B4006030B500B130B6000927023082
:1006F0009023CC2645238A30D2007A30D3000927B4
:100700000800540883169A0083122408831636239F
:100710009B0A8312550883169A0037238312080018
:100720001B239423912608002F30002352300923E5
:100730002F300523080046300523201FA42B3E3010
:1007400009236D274A30A82B4A30092365273E30FC
:1007500000236D233A30052309274230201B4E30F9
:1007600000230800ED01ED25F52520306F18CC2B76
:100770004F30EF18CC2B4330D225FC256C30D225DE
:10078000F9256230D225F725FC257430D225F925CC
:100790006F30D225F825CD2B26230326A40109305E
:1007A000C12541230326D020423000234E300023B0
:1007B000633000230514C02541210930FC00C12508
:1007C000032656300023042305100823652704233D
:1007D00056300923092703019023CC26211B562BD1
:1007E0003E3000234A300023042308236C233A3090
:1007F0000023A32541212116FA159A28ED1C6D1816
:10080000622DED01EB25A01B192C103083169B00E7
:1008100083123A308400000883169A0037239B0A1B
:100820008312840A4A300402031D0B2CA325EB25F6
:10083000C0257730A400A118502B0326A018272C20
:10084000A11E252C211BED252113211B592B211B1A
:10085000ED25211304234E30A01C42300923092723
:1008600045238130D2006527B41BED15A0184C2C10
:100870003A300523CC26F525EF1C412C4C30F225CF
:10088000492C33306F1C2D3E26232E306F1C2D3EFD
:100890002623A11A4723912C4A300523CC26211E5A
:1008A000592CFC0B802C21124630002320179B234F
:1008B000802C56300023B30803197D2CFA1D1B2D04
:1008C000B4137E30D2004C30D300CC30D400D500ED
:1008D0006527B41F7E2C56300923B4137D30D20017
:1008E0004C30D300CC30D400D5006527B41B7D2C10
:1008F000FB197C2CFB0A7E2C1E2DFB015630092394
:10090000F525EF1C862C4330F225922C2B306F1CE2
:10091000293E2623EF18922CF525F525F525F525FA
:10092000F525F5254121A5013308803C0318A02CAD
:1009300045238430D2002030D3000927A50A942C07
:100940008E30D2001C30D3004030D400D501CC26EC
:10095000B62669262508B3007530AC007030AB00B0
:100960003308031DBD2CF0250026B125B1256D19D6
:10097000BB2CA018FF2CAB25032DB30BCD2C6D1D6C
:10098000C52C5B08DA00DB01E82CB1250026B12577
:10099000AB25A018FF2CAB25032DB30BD62C6D195E
:1009A000B32CB125B1250026AA25032DB30BE02CCD
:1009B0006D19E82CB125B125AB250026AB25032DFB
:1009C0006D30AC006E30AB00B30BEC2C6D19D12C3C
:1009D000B1250026A925032DE430B30BF22C6D19A7
:1009E000DA2CD12CB30BF82C6D1DDA2CA825FF2C9A
:1009F0002030AC007530AB00B30BD12C172DED19A6
:100A00000126ED1DF525A0180C2D2C08D225FE255C
:100A1000F525211B08009A282B086D197530D22561
:100A2000EF1C142D211B9A28FF25F5259A28B125A6
:100A30000026A925032DFA0AFA1D802C08309023E0
:100A4000042347238730B3004830B40009272F30F0
:100A50000023751D312D5230002347238230B3000F
:100A600065270423563009230927763000232F30C9
:100A7000092345238130D20065273A300523CC264F
:100A80004A300523092776300523CC26751D4D2DC8
:100A9000B41B4C2DB4174D2DB41304233A30092345
:100AA0006D273A300023763005234A3009236D271D
:100AB0004A3000236D233A30052309274E300023A6
:100AC0009B239A288611ED116D1588308B00883094
:100AD0006F1D383ECD25D730ED18D830D2252030C7
:100AE000ED188830AC000530ED181930C1254723CA
:100AF0008B018E018F0186151014851E882D0C1C0C
:100B00007D2D0C10B40AAC0B7D2DF32510109A2806
:100B100010100E08B6000F08B5009126452382304C
:100B2000D2004030D3006527B3080319932C0E3050
:100B30009023CC268C30D2001C30D3004030D4001F
:100B4000D5010927932CED254F30D225FD2508002E
:100B5000B125B125AB255A308400800E0008D02580
:100B600008005B30AC2D0730B92D3F30AE000130AE
:100B7000BA2DAE01AD00AE0BBB2DAD0BBB2D0034BD
:100B80000230AF00FF30B925AF0BC22D080088300E
:100B90006F19CD2DC030EF1C013EA9000511D52DD8
:100BA0000F393038EC03A9000515290EE12585150C
:100BB00085112908E1258515851108308605B5259B
:100BC00000340F39E700E7196717E7118619E715B1
:100BD0006708860008000230EE2D0130CD25B32DC8
:100BE0003030D22DD2253D30D22D2030D22D043EB2
:100BF000053E043E023E023E163E033E023E183EC5
:100C0000013E2D3ED22D88308B00A2017030092389
:100C10004523ED1C102ED3168430D200CC26162E80
:100C20006D18162ED3168330D2000927B626340845
:100C3000A3003508FF3C8F0036086D18212E043CB8
:100C4000222E053C8E00B9188E034723900A831686
:100C50000516831281010B1D342EFF30031134025F
:100C60000319B30AB40A0B1122183D2E0C1C2B2EAB
:100C70000C10A30B2B2E0B172B2E0B1D462EFF300B
:100C8000031134020319B30AB40A0B110108B500A9
:100C9000B601B60A831601164D2E01128312502E8C
:100CA0000108031135020319492EB609B60A0B11C2
:100CB0003618EE17A112F030360535043404031946
:100CC000A1166D1808009126201D08000423CC26CB
:100CD00008002030AE00DA01DB01DC01DD01DE01BD
:100CE000B60DB50DB40DB30DDA0DDB0DDC0DDD0D5C
:100CF000DE0DAE0B7C2E08000530A3005A308400B8
:100D0000822E840A8626A30B812E702E03300007C4
:100D1000AD00AD19800030300007AD00AD1B800084
:100D200008009830B300AA01AD013408031DA92EB4
:100D30003508B4003608B500B601AD153408031DFA
:100D4000A92E3508B400B501AD112D1634080319CC
:100D5000CA2E2D08B3020310B41BB32EB60DB50D69
:100D6000B40DB303AC2EAA1FB413003432300023E9
:100D7000B601B3178030B202B21F0319CA2E32086F
:100D8000203CB2000310B30CB40CB50CB60CB20B83
:100D9000C22E0034472300343308031D52080319C0
:100DA000CA2E34085306AA005208B3078030031C29
:100DB000DB2EB307DC2EB307B417D3170310B7012C
:100DC000B801B9011830AD00361CF02E5508B9072E
:100DD00054080318540FB80753080318530FB707E4
:100DE000B70CB80CB90CB40CB50CB60C0310AD0BA9
:100DF000E42EB71B002FB40DB90DB80DB70DB3031A
:100E0000AA1FB7133708B4003808B5003908B60070
:100E1000003434085306AA00B417D317AD013408C0
:100E2000B7003508B8003608B9005508B9025408AB
:100E3000031C540FB8025308031C530FB702B70129
:100E4000B801B901031C2B2F0310B40CB50CB60C60
:100E5000B70C0130AD005208B302031C332F8030B1
:100E60002D07B307362F80302D07B3071830AE009B
:100E7000B90DB80DB70DB60DB50DB40DAD0D5508C6
:100E8000B6025408031C540FB5025308031C530F39
:100E9000B402530DAD042D1C4F2F39145A2F550891
:100EA000B60754080318540FB50753080318530A1C
:100EB000B4073910AE0B382FAA1FB7133708B40088
:100EC0003808B5003908B60000345208031D6B2FEE
:100ED0005308031900348030D30634085306AD009C
:100EE00033085202031C752F94233408AA00B41748
:100EF000D3175308B7005408B8005508B900520872
:100F00003302D2000319A12F08305202031C982F7C
:100F1000D200B90D3808B9003708B800B701083059
:100F20005202031C982FD200B90D3808B900B8013D
:100F300052080319A12F0310B70CB80CB90CD20B2F
:100F40009B2FAD1FAB2FB709B809B909B90A03190F
:100F5000B80A0319B70A3908B60738080318380F52
:100F6000B50737080318370FB407AD1BBE2F031C96
:100F7000B32EB40CB50CB60CB30AB32E0318942ED2
:100F8000B409B509B609B60A0319B50A0319B40AB2
:100F90008030AA06942EEB27EB27EB270800EE27DC
:100FA000E5270800E927E927E927E9270800E527D9
:100FB000E527E527E527E527E527D2250800EA27E5
:100FC000EA27EA27EA270800013E073E023E013EE3
:100FD000023E013E013E013E013E023E023E013E16
:100FE000043E043E013ED22D2030203056303230B7
:060FF0002E3035306130A7
:02400E00013F70
:10420000040039000300E800000040000000010045
:1042100000003C0080000000000001000000C80019
:1042200086006A008D00A0008A000900E400F80002
:10423000A300690066009900000000000000000073
:104240004B006100BB00B800B20070006F00B3000B
:10425000BA0061000000A200BC00BA006F00630059
:10426000BF00C4000000A500BD00E3007900BA0053
:10427000BF00B800B300BD000000AB0061006300E8
:10428000BF006F00BF0061000000A1006500BD001D
:10429000650070006100BF006F00700000005700F3
:1042A000610069007400000043006100700061005B
:1042B00063006900740061006E0063006500000027
:1042C00049006E0064007500630074000000460041
:1042D000720065007100750065006E006300790072
:1042E0000000470065006E00650072006100740008
:1042F0006F0072000000FF00FF00FF000100F900E6
:00000001FF
