:10000000F92BFF3FFF3FFF3FFF00030E8301D400AA
:100010000408D3000A08D5008A010C1055088A008C
:1000200053088400540E8300FF0E7F0E09000D302C
:1000300003138312FA00FA0B1B280800F030031395
:1000400083126305A90064080319272829142908C5
:10005000860086141720861017206308A900A90DB2
:100060002910A90D2910A90D2910A90D291064081E
:1000700003193B28291429088600861417208610A6
:100080001720172017200800031383127408F802A2
:100090007508031C750FF9027608031C760FFA0227
:1000A0007708031C770FFB02F30D0730FC00730D7C
:1000B000F80DF90DFA0DFB0D7408731C6D28F8028C
:1000C0007508031C750FF9027608031C760FFA02F7
:1000D0007708031C770FFB027A28F80775080318C6
:1000E000750FF90776080318760FFA0777080318D3
:1000F000770FFB07F30DFC0B5728720DF80DF90D68
:10010000FA0DFB0D7408731C9328F8027508031C84
:10011000750FF9027608031C760FFA027708031CA4
:10012000770FFB02A028F80775080318750FF90769
:1001300076080318760FFA0777080318770FFB077E
:10014000F20D0730FC00720DF80DF90DFA0DFB0DE4
:100150007408721CB928F8027508031C750FF9029F
:100160007608031C760FFA027708031C770FFB0250
:10017000C628F80775080318750FF90776080318DD
:10018000760FFA0777080318770FFB07F20DFC0BC1
:10019000A328710DF80DF90DFA0DFB0D7408721CF2
:1001A000DF28F8027508031C750FF9027608031C96
:1001B000760FFA027708031C770FFB02EC28F8078A
:1001C00075080318750FF90776080318760FFA07F4
:1001D00077080318770FFB07F10D0730FC00710D4E
:1001E000F80DF90DFA0DFB0D7408711C0529F802C4
:1001F0007508031C750FF9027608031C760FFA02C6
:100200007708031C770FFB021229F80775080318FB
:10021000750FF90776080318760FFA0777080318A1
:10022000770FFB07F10DFC0BEF28700DF80DF90DA2
:10023000FA0DFB0D7408711C2B29F8027508031CBC
:10024000750FF9027608031C760FFA027708031C73
:10025000770FFB023829F80775080318750FF9079F
:1002600076080318760FFA0777080318770FFB074D
:10027000F00D0730FC00700DF80DF90DFA0DFB0DB7
:100280007408701C5129F8027508031C750FF902D7
:100290007608031C760FFA027708031C770FFB021F
:1002A0005E29F80775080318750FF9077608031813
:1002B000760FFA0777080318770FFB07F00DFC0B92
:1002C0003B29701871297408F80775080318750F11
:1002D000F90776080318760FFA0777080318770FDF
:1002E000FB07080003138312FB09FA09F909F8094F
:1002F000F80A0319F90A0319FA0A0319FB0A080094
:10030000203003138312FB00FF30FA00FB0B892916
:100310008C29FA0B892986291530FA00FA0B8E29C7
:1003200008000230031383126102031C9929013073
:10033000E10010306202031C9F290F30E200E11C33
:10034000A3291030E207611CA6296217E217620890
:10035000E300E4011E20080003138312FC01F71BD5
:10036000FC0AFD01FB01FA01F901F80173087204AE
:10037000710470040319402A73087706A800A81BAB
:10038000FD09F71FCE29F409F509F609F709F40A62
:100390000319F50A0319F60A0319F70AF31FDB29F3
:1003A000F009F109F209F309F00A0319F10A031936
:1003B000F20A0319F30A73087704A800A81BFC29A2
:1003C0004420FC1B192AFD1F402AF009F109F209FB
:1003D000F309F00A0319F10A0319F20A0319F30ADF
:1003E000F809F909FA09FB09F80A0319F90A0319C6
:1003F000FA0A0319FB0A402AF71F132AF31B0D2AD6
:100400007308FB007208FA007108F9007008F80020
:10041000F301F201F101F001E329F301F201F1012D
:10042000F001F00A0034F309F209F109F009FC17B0
:10043000E029F80A0319F90A0319FA0A0319FB0A51
:1004400074087802031DE32975087902031DE32966
:1004500076087A02031DE32977087B02031DE3294E
:10046000FB01FA01F901F801F00A0319F10A031975
:10047000F20A0319F30AF31FE329A8012816FF342F
:10048000A8017C1C442A7221003F08000313831238
:100490002230FC00F801F901FA01FB01FC03031909
:1004A0007C2A0310FB0CFA0CF90CF80CF30CF20C80
:1004B000F10CF00C031C4E2AFC0303196E2A74087D
:1004C000F80775080318750FF90776080318760FF3
:1004D000FA0777080318770FFB07522A7408F80702
:1004E00075080318750FF90776080318760FFA07D1
:1004F00077080318770FFB070800303003138312C7
:1005000086008614172086108021303086008614DD
:100510001720861080213030860086141720861020
:1005200080212030860086141720861080212830F4
:10053000E300E4011E2080210C30E300E4011E20D2
:1005400080210130E300E4011E2080210630E30019
:10055000E4011E2080212830E300E4011E208021D8
:100560000800031383125608E1005708E2009121A6
:10057000D9015908580784000008F00070080319D1
:10058000CB2A5908580784000008E3000130E40032
:100590001E20D90AB92A080003138312AA01533076
:1005A0002A020318D62A8021AA0ACF2A0800031398
:1005B0008312E00180305906F00080307002031D84
:1005C000EB2A00305802031DEB2A00305702031DAE
:1005D000EB2A003056020318092B0130E000F0012D
:1005E000F101F201F3015608F0025708031C570FFE
:1005F000F1025808031C580FF2025908031C590F46
:10060000F3027008D6007108D7007208D80073088A
:10061000D9005608DB005708DC005808DD005908EF
:10062000DE000130DF008030F000803059067002BB
:10063000031D242B5808003C031D242B5708003CA5
:10064000031D242B5608003C03183E2B0A30F400EF
:10065000F501F601F7015608F0005708F1005808B7
:10066000F2005908F300AC217008D6007108D700D9
:100670007208D8007308D900DF0A132BDF0300309B
:10068000F0005E06031D4E2B70085D06031D4E2B09
:1006900070085C06031D4E2B5B08003A031D522BAD
:1006A0000130DF005A088400203080002030840AA6
:1006B0008000840A8000840A8000840A8000840A02
:1006C0008000840A8000840A8000840A8000840AF2
:1006D0008000840A8000840A800184035F08003C53
:1006E0000318B82B0A30F400F501F601F7015B0896
:1006F000F0005C08F1005D08F2005E08F300AC2138
:100700007808F0007908F1007A08F2007B08F3001D
:10071000700880000008F400F501F601F7015B089D
:10072000F0005C08F1005D08F2005E08F300740858
:10073000F0027508031C750FF1027608031C760F92
:10074000F2027708031C770FF3020A30F400F50178
:10075000F601F701AC217008DB007108DC007208BB
:10076000DD007308DE00303080078403DF036E2B6A
:1007700060080319BD2B2D3080000800031383127D
:10078000FD01F31FD02BF009F109F209F309F00A7A
:100790000319F10A0319F20A0319F30A8130FD075C
:1007A000F71FDE2BF409F509F609F709F40A031916
:1007B000F50A0319F60A0319F70AFD0A46227D1CF9
:1007C000F82BF009F109F209F309F809F909FA0916
:1007D000FB09F00A0319F10A0319F20A0319F30AD3
:1007E0000319F80A0319F90A0319FA0A0319FB0A8B
:1007F0000800433003138316A0006130A10070305D
:10080000A200A3015330A4006D30A5006130A60002
:100810006C30A7006C30A800A9017030AA004630E7
:10082000AB00AC012030AD002030AE002030AF0076
:100830005A30B0006530B1007230B2006F30B30092
:100840002030B4004330B5006130B6006C30B700E2
:100850002030B8002030B9002030BA00BB01413050
:10086000BC007530BD007430BE004330BF00613045
:10087000C0006C30C100C2012030C3002030C40071
:100880002030C5002030C6002030C7002030C8000E
:10089000C9014C30CA006130CB007230CC006730E7
:1008A000CD006530CE00CF016E30D0004630D10093
:1008B000D2017530D3004630D400D5014530D60082
:1008C0007230D7007230D8006F30D9007230DA0041
:1008D000DB01073083129F008501053083168500F8
:1008E0000130831286000C308316860007308100A9
:1008F000013083129000053097007D22D60106302A
:10090000D700A030D800B12206309F00AB01AC0167
:10091000AD01AE01AF0107308316810007308312AD
:100920009700B001B101B201B301B401B501AA0150
:10093000B60100303302031DA72C1E303202031D06
:10094000A72C84303102031DA72C803030020318FD
:10095000EE2C81010C110C19B22C0108463C031C31
:10096000572EAB2C1508A2001608A300200822025F
:10097000B7002108031C013F2302B8002208A00091
:100980002308A100033036020318C82CB60AE72C4E
:100990003708F0003808F100F201F3013008F007E1
:1009A00031080318310FF10732080318320FF2072C
:1009B00033080318330FF3077008B0007108B10053
:1009C0007208B2007308B300B40A0319B50A061915
:1009D000EB2CAA0AEC2CAA01AA13992C3008F000DF
:1009E0003108F1003208F2003308F300E830F40077
:1009F0000330F500F601F70146223408F40035080B
:100A0000F500F601F701AC217008B0007108B100E3
:100A10007208B2007308B300D601D701A430D80021
:100A2000B1220130D6000D30D700AA30D800B12253
:100A30002A080C3C03184A2D3008AB003108AC00E2
:100A40003208AD003308AE000130D6000130D700C7
:100A5000AD30D800B122B901CC220619492DB90A0E
:100A600004303902031C482D2F08031D402D01308E
:100A7000AF00D6010A30D700BC30D800B122472DD4
:100A8000AF01D6010A30D700C330D800B122492DBA
:100A90002C2D562E3008BA003108BB003208BC009D
:100AA0003308BD002B08BA022C08031C2C0FBB0214
:100AB0002D08031C2D0FBC022E08031C2E0FBD0297
:100AC0002F080319F92D80303D06F00080307002A8
:100AD000031D742D00303C02031D742D0A303B02AF
:100AE000031D742D83303A020318F92D7F30F00076
:100AF00080303D067002031D872D3C08FF3C031D1E
:100B0000872D3B08F53C031D872D3A087D3C0318D3
:100B1000F92D8030F00080303D067002031D9A2DC3
:100B20003C08003C031D9A2D3B08003C031D9A2DF8
:100B30003A08003C0318CB2D0630F000F101F20119
:100B4000F3012B08F0072C0803182C0FF1072D08D0
:100B500003182D0FF2072E0803182E0FF307700845
:100B6000AB007108AC007208AD007308AE0006302F
:100B7000F000F101F201F3017008BA027108031CE0
:100B8000710FBB027208031C720FBC027308031CB6
:100B9000730FBD02F92D0630F000F101F201F301EF
:100BA0007008AB027108031C710FAC027208031CC1
:100BB000720FAD027308031C730FAE020630F00013
:100BC000F101F201F3013A08F0073B0803183B0F6B
:100BD000F1073C0803183C0FF2073D0803183D0FCE
:100BE000F3077008BA007108BB007208BC007308F4
:100BF000BD003A08F0003B08F1003C08F2003D0857
:100C0000F3006430F400F501F601F701BE2370082B
:100C1000BA007108BB007208BC007308BD009730B1
:100C2000F4000330F500F601F7013A08F0003B0844
:100C3000F1003C08F2003D08F300AC217008BA0056
:100C40007108BB007208BC007308BD003A08D600EA
:100C50003B08D7003C08D8003D08D9003E30DA00F8
:100C6000D722CA014808C9004708C8002E30C7006B
:100C700046082D3A031D3E2E2D30C50048082D3A5A
:100C8000031D442E2D30C5003030460203184A2E75
:100C90003030C600303048020318502E3030C800C3
:100CA0000130D600D7013E30D800B1228B2CD601BE
:100CB000D701CA30D800B1228316810105308312D2
:100CC0009700B001B101B201B301B401B501B601A1
:100CD000B9010130C80081018E0101308F00003060
:100CE0003302031D7D2E2D303202031D7D2EC630B2
:100CF0003102031D7D2EC03030020318E62E0B1D7D
:100D00007F2E0B1102300F0203189F2EC80A0C1DF4
:100D1000992E1508A4001608A5004808A600A701EA
:100D20000C110130C900B9011608803C0318992E36
:100D3000A603B90A3908303C031CE02FAC2E0C1D69
:100D4000AC2E1508A4001608A5004808A600A701A7
:100D50000C110130C900B90149080319E52EC90178
:100D60002408CA002508CB002608CC002708CD009F
:100D70004E08CA024F08031C4F0FCB025008031C39
:100D8000500FCC025108031C510FCD022408CE0095
:100D90002508CF002608D0002708D10003303602EE
:100DA0000318D42EB60AE52E4A08B0074B080318DC
:100DB0004B0FB1074C0803184C0FB2074D0803182E
:100DC0004D0FB307B40A0319B50A6F2E3008F000AF
:100DD0003108F1003208F2003308F300A030F400CB
:100DE000F501F601F70146223408F4003508F50054
:100DF000F601F701AC217008B0007108B10072086B
:100E0000B2007308B3003008BA003108BB003208E2
:100E1000BC003308BD006430F400F501F601F701B1
:100E20002B08F0002C08F1002D08F2002E08F3002A
:100E3000AC217008BA027108031C710FBB02720862
:100E4000031C720FBC027308031C730FBD02013038
:100E50003302031D352F31303202031D352F2D3063
:100E60003102031D352F003030020318932F3A084A
:100E7000F0003B08F1003C08F2003D08F30064304C
:100E8000F400F501F601F701BE237008BA007108FD
:100E9000BB007208BC007308BD009730F40003303B
:100EA000F500F601F7013A08F0003B08F1003C08B4
:100EB000F2003D08F300AC217008BA007108BB00D5
:100EC0007208BC007308BD0080303D06F000803021
:100ED000003A7002031D762F0F303C02031D762F5F
:100EE00042303B02031D762F40303A02031C902F04
:100EF0006430F400F501F601F7013A08F0003B0810
:100F0000F1003C08F2003D08F300AC217008BA0083
:100F10007108BB007208BC007308BD00D201922F9B
:100F20000130D200AB2F9730F4000330F500F6010A
:100F3000F7013A08F0003B08F1003C08F2003D08D8
:100F4000F300AC217008BA007108BB007208BC0045
:100F50007308BD00D2013A08D6003B08D7003C0810
:100F6000D8003D08D9003E30DA00D722CA0148082F
:100F7000C9004708C8004608C70052080319C32F14
:100F80002E30C600C72F4508C6002E30C5000130E0
:100F9000D600D7013E30D800B12252080319D82F0D
:100FA0000130D6000D30D700D030D800B122DF2F6D
:100FB0000130D6000D30D700D330D800B1228B2CB1
:100FC000D601D701D630D800B122CC228B2CE72F06
:02400E00023F6F
:00000001FF
