:040000008A15122922
:08000800FF00030E8312031335
:10001000A0000A0EA100040EA2008A150A122329CC
:10002000E208031D14280800F930FF3E031D1528BF
:100030000000E20B142808006208E500E401031048
:10004000E50DE40DE50DE40DE5070318E40AE50709
:100050000318E40A3530E5070318E40A00306407A2
:100060008A006308E4006508820000308A000030DE
:10007000E5005730502800308A000030E500643039
:10008000502800308A000030E5006A3050280030E7
:100090008A000030E500823050280030E5009A30B8
:1000A000E4070318E50A65088A0064088200003442
:1000B0000134023403340434053406340834103473
:1000C000203440348034C0340034013402340434E9
:1000D00008341034803400340034203400340034C8
:1000E00008340034003400348034003400342034C8
:1000F00000340034083400340034003480340034D8
:1001000000341034403400340034103400340034EF
:100110000434003400340234003400340034103429
:1001200000340034043400340034003440340034EB
:1001300000342034093405341F3405341E340534AA
:100140001C340534183405341034053400340534B7
:100150000134053403340534073405340F340534D1
:10016000283406340D3405340A340534113405348A
:100170002A3406340C340634003400340234023499
:1001800001340434053404340134033400340134BC
:1001900004340434033403340034043400340234AB
:1001A0000E3404340534033402340434033402348A
:1001B0000134023407340334063404340B34043479
:1001C000023403340034033401340134043403347E
:1001D0000834043406340334093404340D3404344C
:1001E000033404340330DA07DA0CDA0C7F30DA0532
:1001F0000000DA0BF8280800FA30E2001020FA308C
:10020000E2001020FA30E2001020FA30E200102064
:10021000D00BFC2808005C08603C031815297B30D3
:100220005C02031815292030DC025C085A3C031CD0
:1002300008002F305C02031C08002F30DC02031082
:10024000DC0D4608E2005C0AE3001C20E1004608E1
:10025000E2005C08E3008A110A121C20DC00E108BD
:100260000319080086163230E2008A110A121020A3
:100270005C1C40293230E20010203230E2001020B5
:1002800086123230E2001020E1030310DC0C2F292B
:10029000843083169F00D330831285000310D90D5C
:1002A0000310D90D0310D90DC13059049F0014302B
:1002B000DA00F2201F151F195B291E08AF00B001DC
:1002C0002F08B000AF0183161E088312AF049F01F0
:1002D000073083169F00D330831285000800E401A5
:1002E000E501E101E201E301631A08000310E10DF9
:1002F000E20DDB0DDC0DE40DE50D5E086502031D6E
:1003000083295D086402031C8C295D08E4025E08F1
:10031000031CE503E5026114E30A7429E101E40129
:10032000E5015908E2005A08E300611A08005B1C65
:100330009F296208E40763080318630FE5070310A9
:10034000DC0CDB0C0310E20DE30DE10A9529E10161
:10035000E201E401E501E301631A08000310E40D82
:10036000E50DDD0DDE0DE10DE20D60086202031DFD
:10037000BB295F086102031CC4295F08E102600811
:10038000031CE203E2026414E30AAC29D80103303F
:1003900058020318F3295808023A031DD2295508B8
:1003A000D700DA295803031DD8295408D700DA29C1
:1003B0005308D7008030D60056085705D900560894
:1003C0005906031DE529CA14E629CA10CA180616DB
:1003D000CA1C0612871687120310D60CD608031DF6
:1003E000DC29D80AC72907160712080083135118F9
:1003F00083175008840080080319080083135118DC
:10040000831750088400D00A0319D10A0008DB00C2
:100410005B08203A031D102A3230E2001020F62932
:100420005B08DC000B213230E2008A110A12102036
:10043000F629D3010800D301D40108008312031365
:10044000351B242ACA1008003513CA140800831269
:1004500003133F192D2ACA1008003F11CA140800BF
:10046000831203133F18362ACA1008003F10CA141B
:1004700008000430B6006430A300A4014D08003A1F
:1004800003194F2A013A03195A2A033A0319652A14
:10049000013A0319722A073A0319832A08007230B5
:1004A000D2002030D300D4010030D1005230D0002F
:1004B000F62108003F30D2002030D300D4010030B4
:1004C000D1005230D000F62108006230D2006B30EB
:1004D000D3002030D400D5010030D1005230D000FC
:1004E000F6210800CE01871CCE0ACE08031D0800A5
:1004F0003F30D2002030D300D4010030D100523040
:10050000D000F62108002030D300D500D700D90054
:100510006830D200D400D600D800DA010030D10013
:100520005230D000F6210800013083120313CE00B0
:10053000CD01CE080319D82A37083B06CF004E0854
:100540004F050319D32A4508E2004D08E300CD0A00
:100550001C20D0004508E2004D08E300CD0A8A11B6
:100560000A121C20D1004508E2004D08E300CD0A24
:100570008A110A121C20D2004E0837058A110A126D
:100580000319C82AFF30D006FF30D106FF30D2064B
:100590005008D3005108D4005208D500C6210530B8
:1005A000E2001020D52A0330CD070310CE0D992A82
:1005B0003708BB000130CE00CD01CE0803191C2B3B
:1005C00038083C06CF004E084F050319172B440886
:1005D000E2004D08E300CD0A1C20D0004408E200F0
:1005E0004D08E300CD0A8A110A121C20D1004408EC
:1005F000E2004D08E300CD0A8A110A121C20D20045
:100600004E0838058A110A1203190C2BFF30D00648
:10061000FF30D106FF30D2065008D3005108D40075
:100620005208D500C6210530E2001020192B0330F6
:10063000CD070310CE0DDD2A3808BC000800831258
:100640000313B51C2B2BFF30D300BF30D400FF3079
:10065000D500C621302BD3014030D400D501C621AE
:100660000530E2001020D301D401D501C6210800D5
:10067000C03083120313D300D401D501C621053045
:10068000E20010203030D300D401D501C62105305E
:10069000E20010200C30D300D401D501C621053072
:1006A000E20010200230D3008030D400D501C621F2
:1006B0000530E2001020D3012030D4008030D50076
:1006C000C6210530E2001020D3010830D4002030CC
:1006D000D500C6210530E2001020D301D4018030BE
:1006E000D500C6210530E2001020D301D40110301E
:1006F000D500C6210530E2001020D3011030D4000F
:10070000D501C6210530E2001020D3010430D40009
:10071000D501C6210530E2001020D301D4014030BC
:10072000D500C6210530E2001020D3010830D400E6
:100730002030D500C6210530E2001020D301403022
:10074000D400D501C6210530E2001020D301D40128
:10075000D501C6210530E2001020BB01BC01B51156
:1007600008000800D90148212F08D5003008D6001C
:100770000130D90048212F08D7003008D8000A30AE
:10078000550256080318D02B031DD02BC001B10110
:10079000B201D0080319080087110711871008005B
:1007A00056085802031DD62B55085702031CDC2B94
:1007B0005A30B100B201FA2B57085507DB00580830
:1007C000DC0056080318DC0ADC070A30D900DA011D
:1007D0008E216408DD006508DE0057085502DF0041
:1007E000580A031858085602E000A7216408B1000F
:1007F0006508B2003108D1003208D2005108DD008E
:100800005208DE000A30DF00E001A7216408D300AF
:100810006508D4000A30530254080318202C031D25
:10082000202C5308D9005408DA00D90DDA0DD90D5F
:10083000DA0DD90DDA0DD90DDA0DF030D905232CEA
:100840000930D900DA015108DB005208DC000A3017
:10085000DD00DE016F216408DF006508E0005F084D
:100860005907C000D0080319080026304002031CB5
:100870003D2C87148711071108004008163C031807
:10088000452C071587118710080087158710071159
:10089000080083120313B701B801B514A908031D9A
:1008A000552CAA08031D552C0800D1010130D20097
:1008B0001B225308CD005408CE00CD08031D642C24
:1008C000CE08031D642C08004D08643C03184E0834
:1008D000031D0800CF014D084F0203184E080319ED
:1008E00008004F08D300D201D30DD20DD30DD20D85
:1008F000FC305305023ED10001300318D20AD20762
:100900001B225308D0005008290603192A08031D8A
:10091000C02C4F08D300D201D30DD20DD30DD20D70
:10092000FC305305023ED10001300318D20AD20731
:100930000230D1070318D20A19225308B7004F0812
:10094000D300D201D30DD20DD30DD20DFC305305FF
:10095000023ED10001300318D20AD2070330D1077A
:100960000318D20A19225308B800003050050319A1
:10097000BB2CCA14BC2CCA10B510CA18B514080078
:10098000CF0A6B2C831203134A108B13D3308316B8
:10099000850007309F00D33083128500C130831655
:1009A000860083128601831681138B1283128101C4
:1009B0008316811681110115811001100B118B1600
:1009C0008312BE01AD01AE011211910148309200B7
:1009D0006330831692008C14831212153516AB0106
:1009E000AC01BD01A501A601A901AA01B5123513EB
:1009F0000B178B170130D000FC20C7010130C90054
:100A00003823B701B801B510071CA42E6530D300F8
:100A10007330D4007430D200D500D6010030D1003C
:100A20005230D000F6210718132DC701C8011E222D
:100A30001E22CA182B2D8718212D87150711871004
:100A4000182D0719272D871107118714182D8711C5
:100A500007158710182D3230E200102087185A2D04
:100A6000871507118710C708031D382DB8013D2DC4
:100A70004703031D3D2D0130B80094224330DC00B4
:100A80000B213230E2008A110A1210203230E200CB
:100A900010203230E200102030304707DC000B21FC
:100AA0000310B80DC70A4708083C031CC7018A1188
:100AB0000A12172D0719862D871107118714C808E8
:100AC000031D642DB701692D4803031D692D0130F5
:100AD000B70094224C30DC000B213230E2008A1146
:100AE0000A1210203230E20010203230E2001020D2
:100AF00030304807DC000B210310B70DC80A480846
:100B0000083C031CC8018A110A12172D871107150A
:100B100087102B08D0002C08D1005008DD005108A8
:100B2000DE000A30DF00E001A7216408D00065087C
:100B3000D1000310D00DD10D0310D00DD10D031035
:100B4000D00DD10D1230D0070318D10A5008DD00A6
:100B50005108DE000A30DF00E001A7216408D00060
:100B60006508D1005008A5005108A6002508CB0053
:100B70002608CC004630DC000B21C830E2008A1188
:100B80000A121020CD012508643C26080318031D15
:100B9000CD0ACD08031DD92D6E30D2006930D300A7
:100BA0006C30D400D5010030D1005230D000F62195
:100BB0004B2E4B08DD004C08DE00E830DF00033030
:100BC000E000A7216408D0006508D1005008303E3D
:100BD000DC000B213230E2008A110A121020323080
:100BE000E20010204B08DB004C08DC00E830DD00A0
:100BF0000330DE006F216408CB006508CC004B0891
:100C0000DD004C08DE006430DF00E001A72164084D
:100C1000D0006508D1005008303EDC000B21323096
:100C2000E2008A110A1210203230E20010204B0834
:100C3000DB004C08DC006430DD00DE016F2164085D
:100C4000CB006508CC004B08DD004C08DE000A3004
:100C5000DF00E001A7216408D0006508D10050083A
:100C6000303EDC000B213230E2008A110A121020E3
:100C70003230E20010204B08DB004C08DC000A3068
:100C8000DD00DE016F216408CB006508CC004B0855
:100C9000303EDC000B210130D0008A110A12FC200A
:100CA000D001B2235330D2005730D3005230D40099
:100CB0002030D500D6010030D1005230D000F621CE
:100CC000C830E2001020400E0F39CE000A304E022C
:100CD0000318722E400E0F39303EDC000B218A11B2
:100CE0000A12752E3F30DC000B213230E2008A11EF
:100CF0000A1210203230E20010200F304005CF00E1
:100D00000A304F0203188C2E0F304005303EDC00B5
:100D10000B218A110A128F2E3F30DC000B2101308B
:100D2000D0008A110A12FC205630DC000B21203042
:100D3000DC008A110A120B213130DC008A110A1200
:100D40000B218A110A12172D4830CB004930CC00F4
:100D5000CD010030D1004B30D000F62135100719FD
:100D6000BD2E4A10351CB82E0230CD003922351068
:100D70002722CA183823B601D72E8718C72E4A1043
:100D80003022CA1CC52E0130B6004A10D72E4A1890
:100D9000CC2E1E22B6014A141E22CA1CD72EB6081B
:100DA0000319D52E0230CD0039220130B6003608A5
:100DB000013A0319E92E033A0319F32E013A0319F4
:100DC000982F073A8A150319B828043A0319C62838
:100DD0000D295A30A300A4019030A3000130A400D3
:100DE0000230B600AF2E4A1CFF2EA308031DFF2EB3
:100DF000A408031DFF2E0330CD003922AF2E2B088F
:100E0000CD002C08CE004D08DD004E08DE000A3073
:100E1000DF00E001A7216408CD006508CE000310C3
:100E2000CD0DCE0D0310CD0DCE0D0310CD0DCE0D7D
:100E30001230CD070318CE0A4D08DD004E08DE0043
:100E40000A30DF00E001A7216408CD006508CE006C
:100E50004D08A5004E08A600CB012508643C2608D5
:100E60000318031DCB0ACB080319AF2E3230E20062
:100E700010202B08CD002C08CE004D08DD004E08B8
:100E8000DE000A30DF00E001A7216408CD0065081C
:100E9000CE000310CD0DCE0D0310CD0DCE0D0310E1
:100EA000CD0DCE0D1230CD070318CE0A4D08DD0052
:100EB0004E08DE000A30DF00E001A7216408CD0003
:100EC0006508CE004D08A5004E08A6002508A9001B
:100ED0002608AA008718902F05302702CD00280881
:100EE000CE00031CCE032A084E02031D792F2908C9
:100EF0004D0203188C2F05302707CF002808D0009B
:100F00000318D00A50082A02031D882F4F0829020F
:100F100003188C2FB601AF2E2908A7002A08A800B5
:100F2000492435140330B6000230A300A401AF2ECB
:100F3000CC01CC0AA308031D4C10A408031D4C10BF
:100F4000CC080319AF2EB5141F23B801FF30B3002E
:100F5000B400C7010D3047028A1503181A2841084A
:100F6000E2004708E3008A111C20B7008A110A1228
:100F700094220530E20010200130D000B223B108E5
:100F8000031DC52FB2080319D52F34083202031DE3
:100F9000CB2F330831020318D52F3108B3003208A4
:100FA000B4004008C9003708B9003908B700C801C3
:100FB000063048028A15031817284308E20048083B
:100FC000E3008A111C20B8008A110A12942205300D
:100FD000E20010200130D000B223B108031DF42F2D
:100FE000B2088A1503190928340832028A11031D30
:100FF000FB2F330831028A15031809283108B30082
:101000003208B4003511B51835154008C900380844
:10101000BA008A111E228A15CA1C14280230CD007B
:101020008A1139228A151728C80A8A11D82FC70AA7
:101030008A11AA2F0130D0008A11B2234008163C31
:101040008A1503189428B5108A111F23B801C70107
:101050000D3047028A15031894284108E20047081A
:10106000E3008A111C20B7008A110A12942205306D
:10107000E20010200130D000B223B1088A15031D10
:101080004428B2080319542834083202031D4A28A0
:1010900033083102031854283108B3003208B40071
:1010A0004008C9003708B9003908B700C801063040
:1010B0004802031892284208E2004808E3008A1117
:1010C0001C20B8008A110A1294220530E200102078
:1010D0000130D000B223B1088A15031D7228B2086E
:1010E0000319852834083202031D78283308310299
:1010F000031885283108B3003208B4003511B5183B
:1011000035154008C9003808BA008A111E228A1510
:10111000CA1C90280230CD008A1139228A159228E3
:10112000C80A5728C70A2828B5103519B5148A11D6
:101130001F233908B7003A08B80094223230E20081
:1011400010200130D000B2234008263C8A15031835
:10115000AF280430CD008A1139228A15B228CD017A
:101160008A1139224008163C8A110318B123AF2E88
:10117000A3088A11031DAF2EA408031DAF2EB601CC
:1011800035108711071187101E22AF2E2B08CD00B6
:101190002C08CE004D08DD004E08DE000A30DF00CE
:1011A000E0018A11A7216408CD006508CE00031074
:1011B000CD0DCE0D0310CD0DCE0D0310CD0DCE0DEA
:1011C0001230CD070318CE0A4D08DD004E08DE00B0
:1011D0000A30DF00E001A7216408CD006508CE00D9
:1011E0004D08A5004E08A6002508643C03182608F3
:1011F0008A15031908290130D0008A11B2238718F3
:10120000AF2E4008203C0318AF2E0130B600AF2EA1
:101210008711071187108A11AF2E0130CD008A1176
:101220003922AF2E003083120313C1000130C200F7
:101230000130C3000230C4000330C5000430C600D2
:101240008A110A12C22C831203138C1C8D298C1054
:10125000BE0A3E080A3A031D3829BE01A308031D31
:101260003429A40803193829A3080319A403A303E4
:10127000AD0A0319AE0A0B302D022E0803184629B9
:10128000031D462962308316920049296330831674
:101290009200283083122D0603192E08031D8D2974
:1012A000AD01AE01351E68298B123D08AC00E90185
:1012B000AB010108E600E7016608AB046708AC046F
:1012C000121191018101BD0112150B118B166C29B0
:1012D0008B12BD010B118101E7010718E70A6610A7
:1012E00067186614661C7629B51E3517B512661880
:1012F000B5166610871C6614661C8029B51F3F143E
:10130000B5136618B5176610071D6614661C8A2982
:10131000BF1C3F15BF106618BF140C180C100B1D16
:1013200093290B11BD0A220E8400210E8A00200E83
:081330008300FF0E7F0E09008F
:02400E007A3FF7
:00000001FF
